:020000040800F2
:1000000000000824B10D0008010E0008010E0008D0
:10001000010E0008010E0008010E0008000000009B
:10002000000000000000000000000000010E0008B9
:10003000010E000800000000010E0008AB1F0008C0
:10004000010E0008010E0008010E0008010E000854
:10005000010E0008010E00081921000823210008E4
:100060002D2100083721000841210008010E000859
:10007000010E0008010E0008010E0008010E000824
:10008000010E0008010E0008010E0008010E000814
:10009000010E0008010E0008010E00084B210008A7
:1000A000010E0008BD090008010E0008D109000872
:1000B000E5090008F90900080D0A0008010E00080A
:1000C000010E0008010E0008010E0008010E0008D4
:1000D000010E0008E1250008F92500081126000896
:1000E000612100080522000800000000850A0008C0
:1000F0005D0A0008990A0008710A0008010E00084C
:10010000010E0008010E0008210A0008010E000877
:100110002926000841260008350A0008490A000877
:10012000010E0008010E0008010E0008010E000873
:10013000010E0008010E0008010E0008010E000863
:1001400000000000000000000000000000000000AF
:10015000010E0008010E0008010E000859260008D3
:10016000010E0008010E0008010E0008010E000833
:10017000010E0008010E0008010E0008000000003A
:10018000010E0008010E000889260008A1260008BB
:10019000010E0008010E0008010E0008010E000803
:1001A000010E0008010E0008010E0008010E0008F3
:1001B000010E0008010E0008010E0008010E0008E3
:1001C000010E0008010E0008010E0008010E0008D3
:1001D000010E0008010E0008010E0008010E0008C3
:1001E000010E0008010E0008010E0008010E0008B3
:1001F000010E0008010E0008010E0008010E0008A3
:10020000010E0008010E0008010E0008010E000892
:10021000AD0A0008C10A0008D50A0008010E00084E
:10022000010E0008010E0008010E00080000000089
:10023000010E0008010E000800000000010E000879
:10024000010E0008010E0008010E0008010E000852
:10025000010E0008010E0008010E0008010E000842
:10026000010E0008010E0008010E0008010E000832
:10027000010E0008010E00087126000800000000B1
:10028000010E0008010E0008010E00080000000029
:0802900000000000010E00084F
:1002A000034613F8012B002AFBD1181A01387047B6
:1002B00001F0FF01102A2BDB10F0070F08D010F817
:1002C000013B013A8B422DD010F0070F42B3F6D11B
:1002D000F0B441EA012141EA014122F007047FF034
:1002E00000070023F0E80256083C85EA010586EA8B
:1002F000010685FA47F5A3FA87F586FA47F6A5FAC7
:1003000087F68EB9EED1F0BC01F0FF0102F00702D2
:1003100032B110F8013B013A83EA010313B1F8D17D
:100320000020704701387047002D06BF354603385E
:10033000073815F0010F07D1013015F4807F02BF97
:10034000013015F4C03F0130F0BC0138704700BFE8
:1003500010B5054C237833B9044B13B10448AFF3FF
:1003600000800123237010BD8400002400000000E1
:100370002066000808B5034B1BB103490348AFF3DF
:10038000008008BD000000008800002420660008EE
:10039000A74B1B78002B00F04A8110B50022A44B1C
:1003A0001A70A44B012119601A619A61DA611A620C
:1003B0009A62DA621A66A04B1960A04B5B6913F46B
:1003C000003F12D1BFF34F8FBFF36F8F9B4BC3F82A
:1003D0005022BFF34F8FBFF36F8F5A6942F4003240
:1003E0005A61BFF34F8FBFF36F8F944B5B6913F468
:1003F000803F27D1914B0022C3F88420BFF34F8F59
:10040000D3F88040C4F34E3000E01846C4F3C9026C
:1004100043F6E07303EA401343EA82738749C1F865
:1004200060321346013A002BF2D1431E0028ECD172
:10043000BFF34F8F4B6943F480334B61BFF34F8F52
:10044000BFF36F8F7D4AD2F89C3243F00403C2F8A9
:100450009C327B4BDA6822F00402DA609A6942F43B
:1004600040429A61764B9B6913F4005FFAD0714A5F
:10047000136843F48033136000236E4A126812F449
:10048000003F06D147F6FE72934202D801339BB279
:10049000F3E747F6FF72934200F0C480654B9A6A17
:1004A00042F002029A629A6A42F050029A621A6B11
:1004B00042F09F021A631A6B42F400721A631A6BBD
:1004C00042F440321A631A6B42F080721A63DA6A9D
:1004D00042F00802DA62DA6ADA62DA6A42F4403238
:1004E000DA621A6842F080721A60524B1B6813F08D
:1004F000007FFAD04F4B9A6A42F4C8329A62996BE5
:1005000040F2B7120A439A639A6B42F400729A63FC
:100510009A6B42F080729A63DA6ADA62DA6ADA62B5
:10052000DA6A42F40022DA62DA6A42F40012DA622B
:10053000DA6C22F00302DA64DA6C42F00202DA6466
:100540001A6842F080621A603A4B1B6813F0006F21
:10055000FAD0384B9A6942F008029A619A699A6116
:100560001A6942F003021A61324B1B69C3F3C203DA
:10057000032BF9D1334B1A6842F002021A601A6851
:1005800042F020021A602B4B9A6942F040029A61B5
:10059000DA6942F04002DA61DA6942F48062DA61D3
:1005A0001A6A42F040021A621A6842F080021A6027
:1005B000D3F8F42042F00202C3F8F420224A136A6E
:1005C00043F0010313621B4A136843F48053136022
:1005D000184B1B6813F4005FFAD0164BD3F8EC20CD
:1005E00042F00202C3F8EC20D3F8942042F0020259
:1005F000C3F89420D3F8942022F00202C3F8942088
:10060000124A516821F040515160116841F0600177
:1006100011605A6D22F440125A655A6D42F440122C
:100620005A6510BDC4210A4801F0F4FDCBE77047BC
:1006300000000024004402580881005100ED00E051
:100640000048025800200052000400580084004076
:100650008066000808B5FFF79BFE01F011FE094B0C
:100660001868094BA3FB0030800900F09BFC0420B4
:1006700000F0BCFC002211464FF0FF3000F040FCBF
:1006800008BD00BF08000024D34D6210B0F8AE30A2
:100690009BB201335A4203F03F0302F03F0258BFBE
:1006A00053429BB2A0F8AE30B0F8AA20B0F8AE30FA
:1006B0009BB29A4201D0002070474FF0FF30704744
:1006C000B0F840319BB24033B0F83C01181A00F04A
:1006D0003F007047B0F840319BB2B0F83C219342E4
:1006E00003D0D0F83431985C70474FF0FF3070473A
:1006F000037C33B1B0F83E21B0F842319BB29A424C
:10070000F8D17047914215D0A0F82E11A0F82C21F5
:1007100000F11103C0F834310023A0F84031A0F8F3
:100720003C3100F15102C0F83821A0F83E31A0F868
:10073000423170474FF6FF73A0F82E31E6E7000014
:100740008B2905D8044B33F91130A0F82E317047AE
:100750004FF0FF33F9E700BFF86600088B2905D892
:10076000044B33F91130A0F82C3170474FF0FF33B0
:10077000F9E700BFF866000870B504461646002386
:1007800043604FF47A7383601B4B03604FF6FF7333
:10079000A0F82E31194B99421DD00D46184B9942A5
:1007A00021D01849284601F019FDA4F82E01164958
:1007B000284601F013FDA4F82C011EB14FF6FF737B
:1007C000A4F82E31B4F92C21B4F92E112046FFF7EC
:1007D00099FF204670BD4021FFF7B2FF3F21204620
:1007E000FFF7BCFFE9E76D21FFF7AAFF6C21204668
:1007F000FFF7B4FFE1E700BF1868000800100140F0
:10080000004C0040386600085C660008012800D0F3
:10081000704708B54FF6FF73994200D008BD00221B
:1008200004490548FFF7A8FF002204490448FFF7E0
:10083000A3FFF3E700100140A0000024004C00409B
:10084000EC010024B0F92E01B0F1FF3F14BF0020ED
:100850000120704770B504460D4601230374FFF76D
:10086000F1FF10B194F84431E3B9B4F83E11481CDB
:10087000434200F03F0003F03F0358BF5842C6B266
:10088000B4F842319BB2C2B29342F9D0D4F83831B5
:100890005D54A4F83E619434204601F0F3FD48B164
:1008A000012070BD002384F8443104F1940001F06C
:1008B00021FEDAE70249204601F0F6FDF0E700BF2D
:1008C0008D06000810B50446FFF7BCFF30B1236861
:1008D0005B692046984794F8443103B110BD012369
:1008E00084F8443104F1940001F018FEF6E710B5E5
:1008F0000446FFF7E7FFB4F8402192B2B4F83C3168
:100900009A4208D0D4F83421D05C013303F03F037D
:10091000A4F83C3110BD4FF0FF30FBE708B54FF6AF
:10092000FF710120FFF772FF08BD000010B50446FB
:1009300038B1204601F090FD0068436D03B198473F
:1009400010BD40F2CB31024801F064FCF1E700BF7A
:100950003868000838B5054648B12B7F013B072BA6
:1009600019D8DFE803F00A1B180C1818181940F200
:10097000DE310B4801F04EFCEFE7012400E00324D8
:10098000284601F069FD006804F1140300EB8303BD
:100990005B6803B1984738BD0424F1E70224EFE710
:1009A0003868000808B5FFF7D5FF08BD08B5FFF7A0
:1009B000D1FF08BD08B5FFF7B9FF08BD08B5034B67
:1009C000186810B1043000F008FE08BD3803002498
:1009D00008B5034B186810B1043000F0FEFD08BDE7
:1009E0003803002408B5034B586810B1043000F0F8
:1009F000F4FD08BD3803002408B5034B986810B116
:100A0000043000F0EAFD08BD3803002408B5034BAC
:100A1000D86810B1043000F0E0FD08BD38030024B0
:100A200008B5034B186910B1043000F0D6FD08BDBD
:100A30003803002408B5034B586910B1043000F0A6
:100A4000CCFD08BD3803002408B5034B986910B1EC
:100A5000043000F0C2FD08BD3803002408B5034B84
:100A6000D86910B1043000F0B8FD08BD3803002487
:100A700008B5034BD86910B1043000F0AEFD08BDD5
:100A80003803002408B5034B186A10B1043000F095
:100A9000A4FD08BD3803002408B5034B986A10B1C3
:100AA000043000F09AFD08BD3803002408B5034B5C
:100AB000D86A10B1043000F090FD08BD380300245E
:100AC00008B5034B186B10B1043000F086FD08BD6B
:100AD0003803002408B5034B586B10B1043000F004
:100AE0007CFD08BD38030024F8B507460E460024F7
:100AF00025460CE03B190A221979304600F08CF8A3
:100B000005442E21304600F048F805440134022CFB
:100B1000F0DD0A22F979304600F07EF82844F8BD6D
:100B200030B4054D05600171427183719DF8083044
:100B3000C37130BC704700BFB4680008012800D002
:100B400070474FF6FF739942FAD100B583B0002188
:100B500000910B460A460348FFF7E2FF03B05DF839
:100B600004FB00BF7003002408B54FF6FF7101209D
:100B7000FFF7E4FF08BDF8B505460C460026571EF2
:100B80004AB12B681B6814F8011B2846984710B11E
:100B900001363A46F3E73046F8BD08B503681B68EE
:100BA000984708BDF0B58BB0054600238DF824307A
:100BB000012A01D909AC07E00A22FBE73033DBB296
:100BC00004F8013DB7420ED817460E46B1FBF2F1CC
:100BD000F3B211FB02F0C0B21B1ADBB2092BEDD944
:100BE0003733DBB2ECE754B12B685E682046FFF781
:100BF00057FB024621462846B0470BB0F0BD002007
:100C0000FBE708B522B903681B68C9B2984708BD5D
:100C1000D2B2FFF7C7FFFAE708B5FFF7F2FF08BD4A
:100C200010B5044600F0EDF8E0602368DB6820466C
:100C30009847002808DA00F0E4F8E368C01AA368CF
:100C40009842F2D34FF0FF3010BDF8B507460C467E
:100C500016460025B5420AD23846FFF7E1FF0028C4
:100C600005DB214601F8010B01350C46F2E7284669
:100C7000F8BD2DE9F04198469BB106460F46144653
:100C8000002504E0224602F8010B013514464545D3
:100C900008D23046FFF7C4FF002803DB8742F1D1BA
:100CA00000E01D462846BDE8F081000008B5094B6C
:100CB0001BB10948FFF704FD30B9084B1BB10848C8
:100CC000FFF7FEFC18B908BDAFF30080F5E7AFF3FE
:100CD0000080F8E700000000A000002400000000F1
:100CE000EC01002408B501F0A7F908BD7047000029
:100CF00010B5032000F0F2F8244B5B6913F4003FB9
:100D000013D1BFF34F8FBFF36F8F204B0022C3F877
:100D10005022BFF34F8FBFF36F8F5A6942F40032F6
:100D20005A61BFF34F8FBFF36F8F184B5B6913F49A
:100D3000803F27D1154B0022C3F88420BFF34F8F8B
:100D4000D3F88040C4F34E3000E01846C4F3C90223
:100D500043F6E07303EA401343EA82730B49C1F898
:100D600060321346013A002BF2D1431E0028ECD129
:100D7000BFF34F8F4B6943F480334B61BFF34F8F09
:100D8000BFF36F8FFFF7AEFF10BD00BF00ED00E0B7
:100D900008B5FFF7ABFF04F027FF01E0FFF786FF80
:100DA00004F094FF014B002BF8D1F9E7AD0C0008DB
:100DB000DFF834D0002103E00C4B5B584350043182
:100DC0000B480C4B42189A42F6D30B4A02E0002320
:100DD00042F8043B094B9A42F9D301F01DFA04F0A2
:100DE00081FFFFF7D5FF704700000824149B01081E
:100DF0000000002484000024840000248C110024BE
:100E0000FEE708B501F0CCF808BD7047104B1B7821
:100E10000BB90120704710B504464FF47A70B0FB4F
:100E2000F3F30C4A1068B0FBF3F000F0BBF868B9BC
:100E30000F2C01D901200AE0002221464FF0FF309B
:100E400000F05EF8044B1C60002000E0012010BDA3
:100E500001000024080000240400002410B5032031
:100E600000F03CF800F08CFA0F498B69C3F30323C0
:100E70000E4AD35C03F01F03D8400D4B18608B69FA
:100E800003F00F03D35C03F01F03D840094B186035
:100E90000020FFF7BBFF10B10124204610BD04461F
:100EA000FFF7B3FFF9E700BF00440258B868000835
:100EB000080000240C000024034B1B78034A11682F
:100EC0000B441360704700BF01000024200700247A
:100ED000014B1868704700BF200700240649CB6803
:100EE00023F4E0631B041B0C000200F4E0600343E6
:100EF000024A1A43CA60704700ED00E00000FA059C
:100F000030B4154BDB68C3F30223C3F10704042C90
:100F100028BF04241D1D062D14D9033B4FF0FF35B7
:100F200005FA04F421EA0401994005FA03F322EAE0
:100F300003031943002807DB0901C9B2074B195401
:100F400030BC70470023E9E700F00F000901C9B287
:100F5000034B1954F4E700BF00ED00E000E400E0AB
:100F600014ED00E0002807DB00F01F024009012318
:100F70009340024A42F82030704700BF00E100E091
:100F800000280CDB00F01F024009012393402030B1
:100F9000034A42F82030BFF34F8FBFF36F8F704783
:100FA00000E100E00138B0F1807F0AD2064B5860C2
:100FB000064AF02182F823100020986007221A6068
:100FC00070470120704700BF10E000E000ED00E036
:100FD000002808DB00F01F02400901239340603025
:100FE000014A42F82030704700E100E0042805D0B3
:100FF000054A136823F0040313607047024A13681C
:1010000043F004031360704710E000E0704708B538
:10101000FFF7FCFF08BD0000002800F0DF8008B5E6
:10102000024690F83530DBB2022B03D080234365B3
:10103000012008BD03686B486B498B4218BF83428F
:101040000CBF0121002166D03030834263D01830BC
:10105000834260D0183083425DD0183083425AD02A
:101060001830834257D01830834254D000F5567060
:10107000834250D0183083424DD0183083424AD03A
:101080001830834247D01830834244D0183083420E
:1010900041D0183083423ED0183083423BD019688B
:1010A00021F00E0119601368A0F595604E498B423E
:1010B00018BF83426AD04D498B4267D018318B42AA
:1010C00064D018318B4261D018318B425ED0183118
:1010D0008B425BD018318B4258D001F556718B4250
:1010E00054D018318B4251D018318B424ED0183128
:1010F0008B424BD018318B4248D018318B4245D0AF
:1011000018318B4242D018318B423FD0196821F000
:10111000010119603EE0042082F8350081BB334AAA
:1011200093422DD0183293422AD01832934227D0BE
:101130001832934224D01832934221D0183293426D
:101140001ED002F5567293421AD01832934217D02D
:101150001832934214D01832934211D0183293426D
:101160000ED0183293420BD01832934208D0183266
:10117000934205D01A6822F001021A60002058E755
:101180001A6822F001021A60002052E7196821F063
:1011900001011960116E0B6823F480730B60906D70
:1011A000D36D03F01F0101238B404360536E916E9A
:1011B0005960D36E33B1196821F480711960136FCF
:1011C000516F5960002382F83430012382F83530A2
:1011D000136D2BB11046984700202AE70120704775
:1011E000002026E710000240280002404000024094
:1011F00008B5054B9B68034200D108BD024B9860BF
:1012000000F0C2FFF9E700BF8000005838B5FFF7D3
:101210005FFE0446524A136843F001031360504BCB
:101220001B6813F0040F07D1FFF752FE001B0228C2
:10123000F5D90324204638BD494B5A6842F0804214
:101240005A6000221A61474B474A1A60474B186898
:10125000FFF7DCFD044608B10124EBE7FFF738FE99
:1012600005463F4B1B6913F0380F08D0FFF730FEDF
:10127000401B41F288339842F3D90324DAE7FFF7A1
:1012800027FE0546364A1168394B0B401360344B34
:101290001B6813F4003F08D0FFF71AFE401B41F211
:1012A00088339842F3D90324C4E7FFF711FE0546BB
:1012B0002B4A136823F080731360294B1B6813F0CB
:1012C000007F06D0FFF704FE401B0228F5D9032457
:1012D000B0E7FFF7FDFD0546214A136823F0806360
:1012E00013601F4B1B6813F0006F06D0FFF7F0FD73
:1012F000401B0228F5D903249CE7FFF7E9FD0546CA
:10130000174A136823F080531360154B1B6813F0C2
:10131000005F06D0FFF7DCFD401B0228F5D903244F
:1013200088E70F4B00229A61DA611A6211499962CB
:101330001149D962114919635A639963DA631964CF
:101340005A64196821F4802119601A664FF0FF323F
:101350009A66D3F8D02042F48032C3F8D02069E7EF
:1013600000440258080000240090D0030400002428
:1013700045EDF6FF000202020000FF0180020101BC
:10138000744B1B6903F03803102B00F0DF80182B1F
:1013900010D00BB1704870476E4B1B6813F0200FD4
:1013A00000F0D6806B4B1868C0F3C1006B4B23FA7A
:1013B00000F0704710B4674A916A01F00301946A23
:1013C000C4F30510D36A03F00103526BC2F3CC02DD
:1013D00003FB02F307EE903AF8EE677A14F47C7F91
:1013E00000F09480012966D0022900F09280E1B1DA
:1013F00007EE100AF8EE476A9FED596A86EE267AE4
:10140000544B1B6BC3F3080306EE903AF8EE666A82
:101410009FED546A67EE867A76EEA77AF7EE006A59
:1014200077EEA67A27EE277A61E04A4B1B6813F025
:10143000200F23D047490A68C2F3C102474BD3406B
:1014400007EE103AF8EE476A07EE100AB8EE476A60
:1014500086EE867A0B6BC3F3080306EE903AF8EE3D
:10146000666A9FED406A67EE867A76EEA77AF7EEB7
:10147000006A77EEA67A27EE277A38E007EE100AA0
:10148000F8EE476A9FED386A86EE267A314B1B6B81
:10149000C3F3080306EE903AF8EE666A9FED316AF0
:1014A00067EE867A76EEA77AF7EE006A77EEA67A8E
:1014B00027EE277A1BE007EE100AF8EE476A9FED49
:1014C000286A86EE267A234B1B6BC3F3080306EECD
:1014D000903AF8EE666A9FED236A67EE867A76EEBA
:1014E000A77AF7EE006A77EEA67A27EE277A194BED
:1014F0001B6BC3F34623013307EE903AF8EE677A8D
:10150000C7EE276AFCEEE67A17EE900A5DF8044B08
:10151000704707EE100AF8EE476A9FED146A86EEF0
:10152000267A0C4B1B6BC3F3080306EE903AF8EED9
:10153000666A9FED0C6A67EE867A76EEA77AF7EE1A
:10154000006A77EEA67A27EE277AD0E70848704738
:10155000024870470044025800093D000090D00343
:101560000024744A000000390024744C20BCBE4B97
:1015700040787D0110B50446154B4FF400329A6057
:1015800003689A6812F4805F03D0DA6812F4807FEF
:101590000CD123689A6812F4005F03D0DA6812F461
:1015A000007F0BD1012384F8213010BDDA68D2B25C
:1015B00062F4C072DA6000F019FEEAE7DA68D2B2CB
:1015C00062F42072DA60204600F004F8EAE700BF17
:1015D0008000005870477047704710B50446036894
:1015E0001A6912F0020F11D0DA6812F0020F0DD052
:1015F0006FF002021A610123037703689B6913F0FD
:10160000030F79D0FFF7CEF90023237723681A69F7
:1016100012F0040F12D0DA6812F0040F0ED06FF03F
:1016200004021A610223237723689B6913F4407F25
:1016300068D02046FFF7B6F90023237723681A699C
:1016400012F0080F12D0DA6812F0080F0ED06FF007
:1016500008021A61042323772368DB6913F0030F60
:1016600057D02046FFF79EF90023237723681A6995
:1016700012F0100F12D0DA6812F0100F0ED06FF0C7
:1016800010021A61082323772368DB6913F4407F73
:1016900046D02046FFF786F90023237723681A698E
:1016A00012F0010F03D0DA6812F0010F3FD1236866
:1016B0001A6912F0800F03D0DA6812F0800F3DD162
:1016C00023681A6912F4807F03D0DA6812F0800F61
:1016D0003BD123681A6912F0400F03D0DA6812F088
:1016E000400F39D123681A6912F0200F03D0DA684D
:1016F00012F0200F37D110BDFFF758F92046FFF741
:101700006AFF81E72046FFF751F92046FFF763FFA4
:1017100092E72046FFF74AF92046FFF75CFFA3E770
:101720002046FFF743F92046FFF755FFB4E76FF077
:1017300001021A612046FFF73DF9B8E76FF0800219
:101740001A61204600F017F8BAE76FF480721A6148
:10175000204600F011F8BCE76FF040021A61204605
:10176000FFF73AFFBEE76FF020021A61204600F053
:1017700001F8C0E7704770477047000002681368BF
:1017800023F49073136002689168044B0B409360DC
:101790002023C0F884300023C3667047FEFFFFEFAC
:1017A000D0F88030212B00D07047B0F856309BB273
:1017B00053B90268136823F080031360026813684A
:1017C00043F0400313607047036D1A7803689A6210
:1017D000036D01330365B0F856309BB2013B9BB2F9
:1017E000A0F85630E0E7D0F88030212B00D07047C9
:1017F000B0F856309BB253B90268136823F08003E7
:1018000013600268136843F0400313607047036D70
:101810001B880268C3F308039362036D02330365F8
:10182000B0F856309BB2013B9BB2A0F85630DEE7D1
:10183000D0F88030212B00D07047B0F86A300CE02F
:101840000268936823F4000393600268136843F00E
:10185000400313607047013B9BB2002BECD0B0F803
:10186000562092B2002AEBD00268D16911F0800FA5
:10187000F1D0016D09789162026D01320265B0F814
:10188000562092B2013A92B2A0F85620E3E7D0F87F
:101890008030212B00D07047B0F86A300CE002682D
:1018A000936823F4000393600268136843F04003D5
:1018B00013607047013B9BB2002BECD0B0F8562070
:1018C00092B2002AEBD00268D16911F0800FF1D0FA
:1018D000016D0988C1F308019162026D023202654F
:1018E000B0F8562092B2013A92B2A0F85620E1E741
:1018F000D0F88030202B48D1B2FA82F35B0900295E
:1019000008BF0123002B42D190F87C30012B40D03E
:10191000012380F87C300165A0F85420A0F85620FF
:101920000023C0F888302123C0F88030436EB3F123
:10193000005F0FD08368B3F5805F20D0164B03673C
:10194000002380F87C300268136843F08003136042
:10195000002070478368B3F5805F0AD00F4B0367A0
:10196000002380F87C300268936843F4000393609E
:10197000EEE70369002BF1D1094B0367F0E7036938
:10198000002BDBD1074B0367DAE702207047012009
:1019900070470220704700BFA117000831180008E7
:1019A0008F180008E7170008D0F88430202B40F08B
:1019B0008380B2FA82F35B09002908BF0123002B60
:1019C0007CD190F87C30012B7AD0012380F87C30D8
:1019D0008165A0F85C20A0F85E200023C3668368C0
:1019E000B3F5805F06D0A3B9036973B9FF23A0F8EC
:1019F000603014E0036923B940F2FF13A0F86030AF
:101A00000DE0FF23A0F8603009E07F23A0F86030EC
:101A100005E0B3F1805F21D00023A0F860300023FF
:101A2000C0F888302223C0F8843001688B6843F006
:101A300001038B60436EB3F1005F19D08368B3F587
:101A4000805F33D01F4BC366002380F87C30026870
:101A5000136843F4907313600020704703691BB947
:101A60007F23A0F86030DAE73F23A0F86030D6E7A4
:101A7000B0F868309342E1D88368B3F5805F0FD047
:101A8000114BC366002380F87C300268136843F46E
:101A9000807313600268936843F080539360DBE7C0
:101AA0000369002BECD1094BC366EBE70369002BFC
:101AB000C8D1074BC366C7E70220704701207047B3
:101AC00002207047F11A0008C11B00086D1C0008B5
:101AD000591B000808B501680A6822F040020A6034
:101AE0002022C0F880200022026700F033FD08BDEC
:101AF00008B5B0F86030D0F88420222A05D00268FA
:101B0000936943F00803936108BD0268516ADBB230
:101B1000826D0B401370836D01338365B0F85E30C6
:101B20009BB2013B9BB2A0F85E30B0F85E309BB236
:101B3000002BE9D10268136823F4907313600268E4
:101B4000936823F0010393602023C0F884300023BE
:101B5000C36600F0F7FCD7E708B5B0F86020D0F80E
:101B60008430222B05D00268936943F00803936107
:101B700008BD03685B6A816D13400B80836D02337F
:101B80008365B0F85E309BB2013B9BB2A0F85E303B
:101B9000B0F85E309BB2002BEAD10268136823F4E0
:101BA000907313600268936823F00103936020230D
:101BB000C0F884300023C36600F0C4FCD8E70000FE
:101BC00070B50446B0F86060D0F88430222B05D0A0
:101BD0000268936943F00803936170BDB0F86850E0
:101BE00013E02268136823F48073136022689168FD
:101BF0001C4B0B4093602023C4F884300023E36621
:101C0000204600F09FFC013DADB2ADB12368596A9A
:101C1000F3B2A26D0B401370A36D0133A365B4F84A
:101C20005E309BB2013B9BB2A4F85E30B4F85E30EC
:101C30009BB2002BE7D1D4E7B4F85E309BB2002B07
:101C4000CBD0B4F868209A42C7D92268936823F0B1
:101C500080539360044BE3662268136843F02003CB
:101C60001360BAE7FEFFFFEFF11A000870B50446F3
:101C7000B0F86060D0F88430222B05D002689369F8
:101C800043F00803936170BDB0F8685013E0226818
:101C9000136823F480731360226891681C4B0B4017
:101CA00093602023C4F884300023E366204600F0CC
:101CB00049FC013DADB2A5B123685B6AA26D33401A
:101CC0001380A36D0233A365B4F85E309BB2013B71
:101CD0009BB2A4F85E30B4F85E309BB2002BE8D122
:101CE000D5E7B4F85E309BB2002BCCD0B4F86820B6
:101CF0009A42C8D92268936823F080539360054BB9
:101D0000E3662268136843F020031360BBE700BF5B
:101D1000FEFFFFEF591B000870B504460168CB6950
:101D20000D68886840F60F021A4008D113F0200FA2
:101D300005D015F0200F30D110F0805F2DD12AB1E1
:101D40006D4A02402FD16D4E35422CD113F4801FC5
:101D500003D010F4800F40F0B48013F0800F07D050
:101D600015F0800F40F0B48010F4000F40F0B08008
:101D700013F0400F03D015F0400F40F0B08013F483
:101D8000000F03D015F0804F40F0AD8013F0807F3E
:101D900002D0002DC0F2AB8070BDE36E002BFBD0F3
:101DA00020469847F8E713F0010F09D015F4807F1B
:101DB00006D001260E62D4F888103143C4F888108A
:101DC00013F0020F0BD010F0010F08D0216802268B
:101DD0000E62D4F8881041F00401C4F8881013F0A2
:101DE000040F0BD010F0010F08D0216804260E62FA
:101DF000D4F8881041F00201C4F8881013F0080FDD
:101E00000BD015F0200F00D13AB1226808211162E1
:101E1000D4F888200A43C4F8882013F4006F0CD04B
:101E200015F0806F09D022684FF400611162D4F878
:101E3000882042F02002C4F88820D4F88820002AA4
:101E4000AAD013F0200F09D015F0200F02D110F006
:101E5000805F03D0E36E0BB120469847D4F888200A
:101E600023689B6813F0400F02D112F0280F21D095
:101E70002046FFF783FC23689A6812F0400F15D0C4
:101E80009A6822F040029A60A36F5BB11C4A1A65FF
:101E9000A06FFFF7C1F800283FF47EAFA06F036D7D
:101EA000984779E7204600F06DFB75E7204600F083
:101EB00069FB71E7204600F065FB0023C4F8883019
:101EC0006AE74FF480130B62204600F0F5FB63E7EE
:101ED000236F002B3FF460AF204698475CE7204615
:101EE000FFF7F8FD58E7204600F059F854E7204680
:101EF00000F054F850E700BF01000010200100047A
:101F0000051F000808B5806B0023A0F85E30A0F81C
:101F1000563000F037FB08BD90F87C30012B17D00D
:101F2000012380F87C302423C0F8803002681368D5
:101F300023F00C0313600268136843F00803136076
:101F40002023C0F88030002380F87C30184670478A
:101F50000220704790F87C30012B17D0012380F8C5
:101F60007C302423C0F880300268136823F00C030F
:101F700013600268136843F0040313602023C0F861
:101F80008030002380F87C3018467047022070476C
:101F9000D0F88020D0F88400104370477047704715
:101FA00008B5FEF795FF08BD704708B5FEF784FF3A
:101FB000FFF72DF8FFF7F8FF08BD00000B4BD3F833
:101FC000B43F13F0010F0FD038B113F0020F0BD054
:101FD000064B074AC3F8B02F704713F0020F03D126
:101FE000024B0022C3F8B02F704700BF001000E082
:101FF00055CEACC508B50E4BDB6813F0807F04D11D
:102000000B4AD36843F08073D3600120FFF7D6FFFB
:10201000084B00225A601A6842F001021A6000BFA1
:1020200000BF00BF5868B0FA80F0400908BD00BF8B
:10203000F0ED00E0001000E008B5FFF7DBFFFEF771
:102040000DFFFEF707FB08BD03460020012B03D060
:102050005B080130C0B2F9E77047000010B50128F5
:1020600005D018B94FF6FF73994244D010BD4FF612
:10207000FF739942F5D1264B06221A800022DA60BE
:1020800007249C821A6208241C855A6309249C87B1
:102090009A640A24A3F85040DA651724A3F8644030
:1020A0001A67A3F87840C3F88420A3F88C40C3F8DB
:1020B0009820A3F8A040C3F8AC20A3F8B440C3F81C
:1020C000C0202824A3F8C840C3F8D420A3F8DC40DB
:1020D000C3F8E820A3F8F040C3F8FC20A3F80441BB
:1020E000C3F81021A3F81841C3F82421A3F82C4108
:1020F000C3F83821B5E7074C054B9C42B6D0143CD9
:10210000E368002BF8D0201D032201469847F3E72F
:1021100078030024B804002408B50120FFF768F80C
:1021200008BD08B50220FFF763F808BD08B5042014
:10213000FFF75EF808BD08B50820FFF759F808BD9D
:1021400008B51020FFF754F808BD10B52024B4F5E9
:10215000007F04D8A0B2FFF74BF86400F7E710BD8A
:1021600010B54FF48064B4F5004F04D8A0B2FFF767
:102170003FF86400F7E710BD08B5836813B1C36882
:10218000984708BD03F0A3FD08B5FFF75DFF00EB1E
:102190008003044800EB8300043083680BB1FFF731
:1021A000EBFF08BD7803002408B54FF6FF7101204E
:1021B000FFF754FF08BD08B54FF6FF710020FFF789
:1021C0004DFF08BD4B6833B1834201D00C31F9E7B4
:1021D000B1F9000070474FF0FF30704718B108B5F3
:1021E000FFF7F0FF08BD4FF0FF30704708B5034B15
:1021F0001B6813B1024A1068984708BDB804002450
:10220000E004002408B50248FFF7B4F908BD00BF98
:10221000BC040024FEE7000010B41549D1F8883052
:1022200043F47003C1F88830124B1A6842F001027F
:102230001A6000221A611C680F48204018609A61D9
:10224000DA611A629A62DA621A635A639A63DA632B
:102250001A645A64186820F4802018601A66074BC4
:1022600001221A604FF000638B605DF8044B7047E9
:1022700000ED00E0004402587FEDF6EA08810051CD
:1022800070B46E4B1B6903F03803182B00F2D0803A
:10229000DFE803F00DCECECECECECECE16CECECE55
:1022A000CECECECE1ACECECECECECECE1E00634B6E
:1022B0001A68C2F3C102624BD340624A136069E0FC
:1022C000604B614A1A6065E05E4B604A1A6061E0EB
:1022D0005A4DAC6A04F00304AE6AC6F30516EB6A05
:1022E00003F001036A6BC2F3CC0203FB02F307EEB7
:1022F000903AF8EE677A012C62D0022C7CD0DCB1E7
:10230000514BB3FBF6F307EE103AB8EE477A4B4B5E
:102310001B6BC3F30803DFED4E6A67EEA67A06EE89
:10232000903AF8EE666A76EEA77AF7EE006A77EEF4
:10233000A67A67EE277A1DE02B68C3F3C1034048F5
:10234000D840B0FBF6F007EE100AB8EE477A2B6BD8
:10235000C3F30803DFED3E6A67EEA67A06EE903A15
:10236000F8EE666A76EEA77AF7EE006A77EEA67A5E
:1023700067EE277A314B1B6BC3F34623013307EE1D
:10238000103AB8EE477AC7EE876AFCEEE66A2D4B44
:10239000C3ED006A294B9A6902F470624FF48073AE
:1023A00093FAA3F3002B47D0B3FA83F322FA03F393
:1023B000284AD15C234A1368CB40136070BC704735
:1023C0002149B1FBF6F107EE101AB8EE477A1B4B24
:1023D0001B6BC3F30803DFED1E6A67EEA67A06EEF9
:1023E000903AF8EE666A76EEA77AF7EE006A77EE34
:1023F000A67A67EE277ABDE7144AB2FBF6F207EE3B
:10240000102AB8EE477A0D4B1B6BC3F30803DFEDC0
:10241000106A67EEA67A06EE903AF8EE666A76EEF5
:10242000A77AF7EE006A77EEA67A67EE277AA1E739
:10243000044B054A1A60ADE72023B7E70044025871
:102440000090D0030800002400093D0040787D0181
:1024500000000039B8680008043870470438704735
:1024600008B590F89E20064B53F82200FFF790FD28
:1024700000F02200222814BF0020012008BD00BF68
:10248000E404002408B590F89E20064B53F822007F
:10249000FFF77EFD00F02100212814BF002001205D
:1024A00008BD00BFE404002400B310B50446C0F822
:1024B0009410B0F99C00FEF763FD94F89E00D4F8E8
:1024C000A430B4F8AE10012213FA81F1084B53F88E
:1024D0002000FFF70DFA00220121B4F99C00FEF75D
:1024E0000FFDB4F99C00FEF73DFD10BD704700BF25
:1024F000E404002470B108B5B0F99A20B2F1FF3FAE
:1025000000D008BD90F89E20034B53F82200FFF73F
:1025100003FDF6E7704700BFE404002470B108B57E
:10252000B0F99A20B2F1FF3F00D008BD90F89E208C
:10253000034B53F82200FFF70DFDF6E7704700BF8D
:10254000E404002408B5FFF789FF10B1D0F890200B
:10255000904708BD38B50446FFF780FF30B1054607
:10256000D0F894309847B0F1FF3F00D138BDD5F88E
:10257000A430B5F8AE10012213FA81F12046FFF71E
:10258000B7F9F3E738B504460368DA6912F0010FCA
:102590000AD001221A622046FFF760FF054610B1FB
:1025A000FFF75EFFA8B138BDDA6912F0020F02D062
:1025B00002221A62EFE7DA6912F0040F02D0042255
:1025C0001A62E8E7DA6912F0080FE4D008221A620A
:1025D000E1E7012205F19F012046FFF7E5F9E2E777
:1025E00008B52520FEF7F4FC024B1868FFF794FBB2
:1025F00008BD00BFE404002408B52620FEF7E8FC6F
:10260000024B5868FFF788FB08BD00BFE4040024B4
:1026100008B52720FEF7DCFC024B986808B1FFF7ED
:102620007BFB08BDE404002408B53420FEF7D0FC91
:10263000024BD868FFF770FB08BD00BFE40400241C
:1026400008B53520FEF7C4FC024B1869FFF764FBA0
:1026500008BD00BFE404002408B54720FEF7B8FC1D
:10266000024B5869FFF758FB08BD00BFE404002483
:1026700008B58E20FEF7ACFC024B186AFFF74CFB46
:1026800008BD00BFE404002408B55220FEF7A0FCFA
:10269000024B9869FFF740FB08BD00BFE40400242B
:1026A00008B55320FEF794FC024BD869FFF734FBC2
:1026B00008BD00BFE404002410B50446FFF7CEFEB9
:1026C000012200F19F012046FFF76EF910BD0000C6
:1026D00003460D4A10680344EFF30882934207D87B
:1026E0000A4A0B49521A934208D2074A13607047AC
:1026F000084B0C221A604FF0FF307047054B0C223C
:102700001A604FF0FF3070471000002400000824CA
:10271000000400007C110024FEE70000024B16229A
:102720001A604FF0FF3070477C1100240120704781
:1027300010B5012383F310880D4B00241C605C60EE
:102740009C60FEF763FD23460CE00A4A03F120007B
:102750004FF0FF3142F8201003F1600042F82010E2
:1027600001339BB2072BF0D9002383F3108810BDEF
:1027700010E000E000E100E010B5FFF7D9FF054BE5
:102780001B68054C2360054B186800F02CF9236882
:10279000984710BD04000208240700240000020826
:1027A00010B5ADF5167D00220F490CA801F0F0FB25
:1027B00088B1002400220D490CA801F0E9FB08B9FA
:1027C00044F008040A49684601F00EFE28B120468C
:1027D0000DF5167D10BD0124ECE744F010046846A9
:1027E00001F039FEF3E700BFC8680008D4680008AC
:1027F000E468000870B5ADF53A7D002102912E2203
:1028000003A803F0BBFA01223C4910A801F0C0FB69
:10281000002871D10546139A394B1344394A934223
:1028200026D8364B0193202400944FF416731A4691
:102830001421322003F02EF8139A9AAE920A3249EC
:10284000304603F0A1FB019600944FF416731A462C
:102850006421282003F01EF82C4B019300944FF4C0
:1028600016731A468C21282003F014F800241DE06A
:10287000274B0193202300934FF416731A466421CB
:102880000A2003F007F8002033E0DDB202AE2A464A
:102890002049304603F078FB0196202300934FF443
:1028A00016731A468C21B82002F0F4FF159A139B78
:1028B0009A421AD00FAB4FF40062174910A801F0EA
:1028C0005BFC90B90F9A0332920813490C482044DC
:1028D00002F0D0FB0F9B1C44642303FB04F3139A08
:1028E000B3FBF2F39D42E1D0CFE710A801F06CFDFD
:1028F00001200DF53A7D70BD0020FAE7D46800088C
:1029000000000208FFFF2108046900081869000898
:10291000EC680008286900082807002430B4CB08B8
:10292000083350F8234001F0070189000F258D403E
:1029300024EA050440F8234050F8234002FA01F14C
:102940000C4340F8234030BC70472DE9F0439E46CD
:10295000DDF81C80089B00241CE087680CEA070750
:102960008760876808FA06F947EA090787604768B9
:1029700027EA0505456045680EFA04F73D434560C2
:10298000C5680CEA0505C560C76803FA06F53D434E
:10299000C56001340F2C18D80125A54035EA010681
:1029A000F7D1D0F8009066000327B7406FEA070C14
:1029B00029EA07070760076802FA06F947EA0907E4
:1029C0000760571E012FDBD8C7E7BDE8F08312F080
:1029D000010F03D08369194381617047836943EA1A
:1029E00001418161704780F308887047704700207B
:1029F000704708B10120704708B501F09FFF00B192
:102A0000012008BDB3B170B50C4615461E4608B18D
:102A1000012070BD1A462946204602F063F806E000
:102A200001F08CFF32462946204602F05BF8002870
:102A3000F6D1EEE704207047B3B170B50C461546E9
:102A40001E4608B1012070BD1A462946204602F0F4
:102A50007DF806E001F072FF32462946204602F07A
:102A600075F80028F6D1EEE70420704710B919B9BF
:102A7000084670470120704704207047004870479F
:102A8000C070D94C4278007840EA02207047C27882
:102A9000837843EA0222437843EA0223007840EA3B
:102AA000032070470170090A417070470170C1F33B
:102AB00007234370C1F307438370090EC170704749
:102AC00010B414462AB10A78013102700130013C79
:102AD000F9D15DF8044B704701700130013AFBD128
:102AE000704710B40446207801340B780131C01AC5
:102AF000013A01D00028F6D05DF8044B7047034638
:102B0000187818B1884201D00133F9E7704780285E
:102B100007D99F2807D9DF2807D9FC2807D9002023
:102B20007047002070470120704700207047012047
:102B300070473F280BD97E280BD910F0800F02D1A7
:102B400048B100207047FC28FAD8012070470020C7
:102B50007047012070470120704702398369023BAA
:102B60008B4204D9C36A408901FB003070470020C2
:102B7000704770B506460D4601F11A00FFF782FF57
:102B80003378032B00D070BD044605F11400FFF725
:102B900079FF44EA0040F6E770B506460C46154654
:102BA00091B204F11A00FFF77DFF3378032B00D0B8
:102BB00070BD290C04F11400FFF774FFF8E7000062
:102BC0002DE9F04180460E4601F11A00FFF75AFF49
:102BD00060BB357825F04005013D05EB450305EB6D
:102BE00083050127002404E028F815000746013575
:102BF00001340C2C0FD8114B185D3044FFF742FF05
:102C00001FB1FE2DF0D9002011E04FF6FF7398425E
:102C1000EED000200BE0337813F0400F09D0FE2DEA
:102C200009D8002328F81530012000E00020BDE875
:102C3000F0810120FBE70020F9E700BF4C690008A4
:102C40002DE9F84380460F4691464B730F23CB7214
:102C500000240C73214607F11A00FFF723FF09F146
:102C6000FF3606EB460306EB8306254602E00134F9
:102C70000C2C11D84FF6FF739D4202D038F8165035
:102C800001360C4B185D29463844FFF70BFF002D29
:102C9000EDD14FF6FF75EAE74FF6FF739D4202D084
:102CA00038F816300BB949F0400987F80090BDE8B4
:102CB000F88300BF4C690008F0B583B0064617469C
:102CC0001C460B22FFF7FCFE052C11D807271FE03E
:102CD00001310F290CD803F0010505EB44045B0812
:102CE00014F4803FF4D084F4883484F02104EFE7B6
:102CF0003B88002BEAD002370021EAE77D1E02AABA
:102D00003A4402F8083C23090F2C0AD92F461C46E6
:102D100004F00F0202F13003392BEFD902F137032F
:102D2000ECE77E2202AB2B4403F8082C002400E0E1
:102D30000134AC4211D2305D20280ED0FFF7E7FEFF
:102D40000028F5D0BB1EA34207D00134F0E72022B3
:102D5000631C3255072B08D81C46072DF7D802AB49
:102D60002B4413F8082C0135F2E703B0F0BD10B482
:102D700001460B240020C30143EA500308780131C7
:102D800050FA83F3D8B2013CF5D15DF8044B70479B
:102D90000146006828B30246137801323A2B18BF67
:102DA0001F2BF9D83A2B01D00020704710B40378BC
:102DB000A3F13004E4B2092C0ED80230904202D0C4
:102DC0004FF0FF300AE0A3F13000002802DD4FF0A1
:102DD000FF3003E00A6001E04FF0FF305DF8044B84
:102DE00070474FF0FF30704738B50D46044698B134
:102DF00003689BB11A78A2B18188DA88914203D026
:102E0000092000242C6038BD5878FFF7F0FD10F041
:102E1000010009D12468F5E70920F3E71C460920E1
:102E2000F0E709200024EDE709200024EAE770B567
:102E3000C5780DB9284670BD044600F1340601235B
:102E4000026B31464078FFF7F7FD054688B900234D
:102E5000E370216B636ACB1AE2699342EAD2A378EA
:102E6000022BE7D101230A4431466078FFF7E4FDE5
:102E7000E0E70125DEE770B5036B8B4202D1002647
:102E8000304670BD04460D46FFF7D1FF06460028C8
:102E9000F6D101232A4604F134016078FFF7B2FD30
:102EA00010B101264FF0FF352563E9E738B5044638
:102EB0000023C3704FF0FF330363FFF7DCFF10BB49
:102EC000054604F23220FFF7DDFD4AF6552398420D
:102ED0001BD194F83430EB2B18BFE92B03D0E82B2F
:102EE00001D0022512E00322094904F16A00FFF72C
:102EF000F8FD58B10522074904F18600FFF7F1FDFE
:102F000020B1022502E0042500E00325284638BD53
:102F10002C690008306900082DE9F04F85B00D4696
:102F2000164600230B60FFF733FF071EC0F24B81EC
:102F3000B84B53F82740002C00F04A812C6006F073
:102F4000FE06237873B16078FFF751FD10F001059C
:102F500008D1002E00F0388110F0040F00F0348109
:102F60000A2531E100232370F8B26070FFF741FDBC
:102F700010F0010540F02E811EB110F0040F40F05A
:102F80002B8100212046FFF791FF022800F0878067
:102F90000027042800F02281012800F2218104F199
:102FA0003F00FFF76FFDB0F5007F40F01B8104F19B
:102FB0004A00FFF767FD064620B904F15800FFF705
:102FC00066FD0646E66194F84420A270531EDBB20B
:102FD000012B00F2098106FB02F894F84190A4F855
:102FE0000A90B9F1000F00F0018109F1FF3319EAED
:102FF000030F40F0FD8004F14500FFF743FD8246DA
:10300000208110F00F0F40F0F58004F14700FFF72A
:1030100039FD834620B904F15400FFF738FD83469B
:1030200004F14200FFF72EFD0246002800F0E48084
:1030300000EB080303EB1A139B45C0F0DF80ABEBFA
:10304000030BBBFBF9F1CB45C0F0DA80724881423B
:103050003DD9AB464FF6F570814201D84FF0020BD7
:1030600040F6F570814235D9BBF1000F34D10D2502
:10307000AAE0002004AB03EB860343F8100C0136F2
:10308000032E0ED804F13400330103F5DF73184426
:103090000379002BEDD00830FFF7F9FCEAE70026B2
:1030A000EEE700260AE039462046FFF7FFFE01283A
:1030B0007FF66FAF0136032E3FF66BAF04AB03EB29
:1030C000860353F8107C002FEDD10320F2E74FF078
:1030D000030BBFE74FF0010B01F10209C4F8189090
:1030E00027623A4462623B44E362BBF1030F27D09C
:1030F000BAF1000F00F08A804244A262BBF1020FD5
:103100002FD009EB490309F0010909EB530909F232
:10311000FF13B6EB532F7BD34FF0FF336361236173
:1031200080232371BBF1030F1ED084F800B03B4A0B
:10313000138801339BB21380E380394BE36043E093
:1031400004F15E00FFF79EFC00285BD1BAF1000F8E
:103150005AD104F16000FFF79AFCA0624FEA890996
:10316000D5E74FEA4909D2E704F16400FFF78AFC8A
:103170000128DAD1791C2046FFF77DFE0028D4D142
:103180000023237104F23220FFF77CFC4AF655231A
:103190009842CAD104F13400FFF779FC214B9842E0
:1031A000C3D104F50670FFF772FC1F4B9842BCD1E7
:1031B00004F50770FFF76BFC606104F50870FFF71A
:1031C00066FC2061B1E70B25284605B0BDE8F08F0D
:1031D0000C25F9E70325F7E70A25F5E70125F3E7CD
:1031E0000D25F1E70D25EFE70D25EDE70D25EBE7C3
:1031F0000D25E9E70D25E7E70D25E5E70D25E3E7D3
:103200000D25E1E70D25DFE70D25DDE70D25DBE7E2
:103210000D25D9E708050024F5FFFF0F0C05002454
:103220001005002452526141727241612DE9F0474C
:1032300001297ED907460C46164683698B427AD906
:103240000378022B45D0032B57D0012B03D0022546
:103250002846BDE8F08701EB5108416A01EB58218F
:10326000FFF709FE05460028F2D107F1340A08F1FC
:103270000109C8F3080814F001041FD01AF9083036
:1032800003F00F03320102F47F621343DBB20AF84A
:1032900008300123FB70796A01EB59213846FFF7AA
:1032A000EAFD05460028D3D1C9F3080944B1C6F3A5
:1032B00007120AF809200123FB70C9E7F3B2E6E719
:1032C0001AF9092022F00F02C6F303263243D2B2C4
:1032D000EFE7416A01EB1421FFF7CDFD0546002819
:1032E000B6D107F13400640004F4FF74B1B2204495
:1032F000FFF7D8FB0123FB70AAE7416A01EBD41169
:10330000FFF7B9FD05460028A2D126F0704607F167
:103310003403A40004F4FE741C442046FFF7B7FBFA
:1033200000F0704131432046FFF7C0FB0123FB70E2
:103330008EE702258CE702258AE7F8B505680129A2
:1033400056D90C46AB698B4254D92B78022B2DD021
:10335000032B3BD0012B01D001204AE001EB5106A9
:10336000696A01EB56212846FFF785FD10B14FF041
:10337000FF303EE0771CC6F308062E4496F8346012
:10338000696A01EB57212846FFF775FDA0BBC7F31B
:1033900008073D4495F8340046EA002014F0010F78
:1033A00001D0000925E0C0F30B0022E0696A01EBBF
:1033B00014212846FFF75FFD08BB05F134006400C7
:1033C00004F4FF742044FFF75DFB12E0696A01EB2F
:1033D000D4112846FFF74FFDA0B905F13400A40031
:1033E00004F4FE742044FFF752FB20F0704000E02C
:1033F0000120F8BD0120FCE74FF0FF30F9E74FF066
:10340000FF30F6E74FF0FF30F3E72DE9F041D0F859
:103410000080B1F5001F42D206460F4611F01F0F83
:103420003FD1016184682CB998F80030022B01D992
:10343000D8F82840B4B9B8F80830B3EB571F32D9E0
:10344000D8F82830B3617461B36993B303EB5723A1
:10345000B36108F13403C7F308011944F161002096
:10346000BDE8F081B8F80A506D0200E07F1BAF4262
:103470000FD321463046FFF760FF0446B0F1FF3F0F
:1034800013D0012813D9D8F818308342EED802207F
:10349000E6E721464046FFF760FBB061D3E7022034
:1034A000DEE70220DCE70220DAE70120D8E702208D
:1034B000D6E70220D4E72DE9F041054606680F461D
:1034C00051B9D6F81080B8F1000F12D0B369434556
:1034D00011D84FF001080EE0FFF72FFF0346012837
:1034E0006DD9B0F1FF3F6FD0B26982426CD8B84657
:1034F00001E04FF001087369002B65D0B84501D099
:10350000444645E008F10104B369A34200D802240F
:1035100021462846FFF711FF0346B0F1FF3F18BFD1
:10352000012851D038B13369012BE9D9B2699A42E7
:10353000E6D99846E4E7002CE2D04FF0FF3221466E
:103540003046FFF773FE02463B1E18BF01230028DA
:1035500018BF00232BBB5ABB34617269B369023BAD
:103560009A4201D8013A7261337943F00103337111
:10357000234629E021462846FFF7DFFE03460028C0
:10358000DBD0B0F1FF3F18BF01281DD044451AD051
:103590000134B369A342EDD8B8F1010F11D9022467
:1035A000E8E7224639463046FFF740FE0246D2E7BA
:1035B000012A01D0012307E04FF0FF3304E001238B
:1035C00002E0002300E000231846BDE8F081F8B5D2
:1035D0000C46056801292ED906461146AB69A3425F
:1035E0002BD94AB14FF0FF322846FFF71FFE07469E
:1035F00010B123E0A24221D9274621463046FFF7E9
:103600009CFE0446E0B101281CD0B0F1FF3F1BD066
:10361000002239462846FFF709FE074670B96B6954
:10362000AA69911E8B42E5D201336B612B7943F07D
:1036300001032B71DEE7022700E002273846F8BDC0
:103640000027FBE70227F9E70127F7E7F8B505466A
:103650000C46FFF7ECFB08B10120F8BD21462846D7
:10366000FFF77BFA0646286305F134074FF4007232
:1036700000213846FFF730FA002400E001346B895E
:10368000A34207D90123A21939466878FFF7D4F974
:103690000028F3D06889001B18BF0120DDE72DE961
:1036A000F84304468846076805692035B5F5001FCC
:1036B00001D300238361A369002B46D0C5F308061C
:1036C0003EB90133A361616979B93B89B3EB551FF9
:1036D00007D9256107F134033344E3610020BDE8D5
:1036E000F8830023A3610420F9E77B89013B13EAF7
:1036F0005523EED12046FFF720FE8146012826D92A
:10370000B0F1FF3F25D0BB69834212D8B8F1000F5A
:1037100017D061692046FFF7CEFE8146D8B1012857
:103720001BD0B0F1FF3F1AD001463846FFF78EFF9D
:10373000B8B9C4F8149049463846FFF70EFAA061AC
:10374000C7E70023A3610420C9E70420C7E70220DC
:10375000C5E70120C3E70720C1E70220BFE701203A
:10376000BDE70120BBE7F8B504460E460768002117
:10377000FFF74BFE0246B8B9002506E000250121FF
:103780002046FFF78CFF024670B9A1693846FFF763
:1037900072FB024640B9E3691B78002B18BFE52B8A
:1037A000ECD10135B542EAD1042A01D01046F8BD6A
:1037B0000722FBE72DE9F8430446884607684FF0E7
:1037C000FF094E4604252CE00F2B19D112F0400FB3
:1037D00006D091F80D9002F0BF022369E36216460D
:1037E000B24201D0FF2616E04B7B4B4501D0FF26AD
:1037F00011E0F868FFF7E4F978B3013EF6B20AE0A9
:1038000026B90846FFF7B3FA484529D04FF0FF33F1
:10381000E36225E0FF2600212046FFF740FF054632
:10382000F0B9A169E1B13846FFF725FB0546B8B903
:10383000E1690A789AB1CB7A03F03F03A3712E2A8B
:1038400018BFE52AE6D023F02000082814BF002086
:1038500001204045B8D0FF26DDE7FF26DBE7042541
:103860000DB10023A3612846BDE8F88370B5044676
:1038700005680669C16AB1F1FF3F18D1A169284600
:10388000FFF7F9FA034670B9E269E52111700122E8
:10389000EA702269B24206D200212046FFF7FFFEFD
:1038A00003460028EAD0042B07D0184670BDFFF766
:1038B000ACFD03460028F8D1E0E70223F5E700005D
:1038C0002DE9F04781460F4601F11A00FFF7DAF8BB
:1038D000C8BB3E7806F03F06013E06EB460306EB0A
:1038E00083064FF00108002506E000202CE04FF68B
:1038F000FF7398422AD101350C2D18D8174B585D0B
:103900003844FFF7BFF80446B8F1000FEFD0FE2EA1
:10391000EBD800F0F1FE804606F1010A39F81600F6
:1039200000F0EAFE8045E0D1A0465646E3E73B784A
:1039300013F0400F0CD0B8F1000F0BD039F816304F
:1039400053B9012000E00020BDE8F0870020FBE72C
:103950000120F9E70120F7E70020F5E74C690008AE
:103960002DE9F8430446D0F800800021FFF74DFD13
:103970000646002864D14FF0FF33E3624FF0FF09A1
:103980004F460AE04FF0FF33E362FF270021204655
:10399000FFF785FE0646002852D1A1694046FFF791
:1039A0006AFA064600284BD1E5692B78002B46D0F1
:1039B000E97A01F03F02A271E52BE3D011F0080F84
:1039C00001D00F2ADED10F2A16D027B92846FFF7DB
:1039D000CEF9484534D094F82B3013F0010F06D1BE
:1039E0000B2204F120012846FFF77BF840B34FF08B
:1039F000FF33E362FF27C9E794F82B2012F0400F52
:103A0000C4D113F0400F06D095F80D9003F0BF031A
:103A10002269E2621F46BB4201D0FF27B6E76B7BFB
:103A20004B4501D0FF27B1E72946D8F80C00FFF736
:103A300047FF10B1013FFFB2A8E7FF27A6E7042622
:103A40003046BDE8F88300002DE9F04385B00668F4
:103A500090F82B3013F0A00F40F08D800746002423
:103A600000E00134F36833F81430002BF9D107F18A
:103A700020080C22414601A8FFF722F89DF80F30DC
:103A800013F0010F1BD0402387F82B300125632D45
:103A90000CD82B46F26801A94046FFF70DF93846CD
:103AA000FFF75EFF814608B90135F0E7642D65D068
:103AB000B9F1040F19D19DF80F3087F82B309DF81C
:103AC0000F3013F0020F14D00C342E4BA3FB043430
:103AD000A408013421463846FFF745FE814608B95F
:103AE000013C08D1B9F1000F2BD0484605B0BDE824
:103AF000F0830124EEE73969A1EB44113846FFF762
:103B000084FC81460028EDD14046FFF730F9054698
:103B1000B9693046FFF7AFF981460028E2D12B465C
:103B2000E2B2F969F068FFF78BF80123F370002126
:103B30003846FFF7B4FD81460028D3D1013CE7D1D8
:103B4000D0E7B9693046FFF796F981460028CCD115
:103B500020220021F869FEF7BFFF0B224146F869D9
:103B6000FEF7AEFF97F82B30FA6903F018031373D2
:103B70000123F370B9E74FF00609B6E74FF00709E4
:103B8000B3E700BF4FECC44EF8B5054607683E46A4
:103B900016F8010B84B2FEF7BAFF40B1BE1C7F7865
:103BA0003846FEF7C6FF88B107EB0424A4B214B967
:103BB00020462E60F8BD4FF46971204600F074FD78
:103BC00004460028F4D14FF0FF30F3E74FF0FF3008
:103BD000F0E700002DE9F04F85B080460F460B68F6
:103BE00003930368DD6800240EE086B22F2E18BF11
:103BF0001F2E20D95C2E1ED07F2E14D9FE2C00F251
:103C0000088125F81460013403A8FFF7BDFFB0F167
:103C1000FF3F00F0FC80B0F5803FE6D3030C25F8B1
:103C200014300134E1E731467C48FEF768FF002894
:103C3000E4D0062088E0039B1A785C2A18BF2F2A5C
:103C400002D101330393F6E73B601F2E0DD84FF0EE
:103C500004096CB16FF00043234435F81330202B76
:103C600018BF2E2B04D1013CF3E74FF00009F0E719
:103C7000002325F81430002C00F0CD801E4600E013
:103C8000013635F81630202BFAD00EB92E2B03D181
:103C900049F0030900E0013C34B16FF000432344D4
:103CA00035F813302E2BF6D10B22202108EB010022
:103CB000FEF712FF4FF0080B4FF0000ACDF804A0FA
:103CC00002E049F003093E46771C35F81660BEB1A4
:103CD000202EF6D02E2E14BF00230123BC4208BF95
:103CE0000023002BEDD1BC4218BFDA453CD3BBF119
:103CF0000B0F2CD0BC4201D049F00309BC4229D2A1
:103D000098F82030E52B79D0BBF1080F7AD0019AD2
:103D100002F00C030C2B03D002F00303032B01D1A0
:103D200049F0020919F0020F0BD1019B13F0010FAA
:103D300001D049F01009019B13F0040F01D049F0A4
:103D4000080988F82B90002005B0BDE8F08F49F0F5
:103D50000309D5E7019B9B00DBB2019326464FF098
:103D60000B0B4FF0080AAFE77F2E0DD8FF2E1BD9A3
:103D70000BF1FF33534512D90AF10103C6F30722B1
:103D8000C2448AF8202014E049F00209304600F0CD
:103D9000B3FC4FF4697100F055FC0646E6E749F0C4
:103DA00003093E46DA468FE756B949F00309534600
:103DB0005F2603F1010A434483F820603E4683E70F
:103DC00031461748FEF79BFE0028EED1A6F14103CD
:103DD0009BB2192B03D8019B43F002030193A6F178
:103DE00061039BB2192B07D8019B43F00103019398
:103DF000203EB6B25346DCE75346DAE7052388F89F
:103E0000203081E7019B9B00DBB201937FE7062016
:103E10009AE7062098E7062096E700BF3869000871
:103E20004469000830B583B0044601910568019BE0
:103E30001A785C2A18BF2F2A02D101330193F6E7C2
:103E40000022A2601B781F2B1BD8802384F82B3004
:103E500011462046FFF7D9FA0346184603B030BD95
:103E60000428FAD112F0040FF7D10523F5E705F184
:103E700034012369C3F3080319442846FEF779FE89
:103E8000A06001A92046FFF7A5FE03460028E4D163
:103E90002046FFF765FD94F82B2003460028DFD16C
:103EA00012F0040FD9D1A37913F0100FDFD105233D
:103EB000D3E7000070B50446FEF7B9FF054648B9E0
:103EC0002378032B08D0002211466078FEF7CEFD40
:103ED00000B10125284670BD2379012BF3D104F1EF
:103EE00034064FF4007200213046FEF7F5FD4AF625
:103EF000552104F23220FEF7D5FD0F493046FEF77A
:103F0000D5FD0E4904F50670FEF7D0FD616904F594
:103F10000770FEF7CBFD216904F50870FEF7C6FDBA
:103F2000226A01322263012331466078FEF784FD64
:103F300000232371C7E700BF525261417272416191
:103F400010B584B0019000911446039103A8FEF7C8
:103F50001FFF002817DB0D4B53F820300BB1002258
:103F60001A70019B0BB100221A70084B019A43F89A
:103F7000202014B9204604B010BD002201A96846D3
:103F8000FEF7CAFFF7E70B20F5E700BF080500249E
:103F90002DE9F04190B00191002800F0EB8015462A
:103FA000064602F03F073A4603A901A8FEF7B4FF10
:103FB000044630B10CB100233360204610B0BDE898
:103FC000F081039B0493019904A8FFF72BFF04469B
:103FD00018B99DF93B30002B3FDB15F01C0F4DD07D
:103FE000002C41D0042C3AD047F00807002C54D1C3
:103FF00017F0080F51D0DDF82C8041460398FEF7EA
:10400000B8FD0546FEF73AFD014608F10E00FEF741
:104010004DFD0B9B2022DA7200220B990398FEF7CC
:10402000BBFD00210B981C30FEF740FD039B0122D5
:10403000DA7095B3039BD3F830800022294604A898
:10404000FFF7C5FA044640BB41460398FEF713FF4D
:104050000446013D039B1D611FE00624BDE704A843
:10406000FFF7F2FC0446BFE79DF8163013F0110F7E
:1040700012D115F0040FB9D008240EE06CB99DF8E8
:10408000163013F0100F40D115F0020F05D013F0C9
:10409000010F02D007240BE007244CB917F0080FDA
:1040A00001D047F04007039B1B6B33620B9B73628D
:1040B000002C7FF47FAF039DDDF82C80414628461D
:1040C000FEF757FDB06008F11C00FEF7E0FCF06061
:1040D0003560EB88B380377400217174F1617161D0
:1040E00006F128084FF400724046FEF7F5FC17F081
:1040F000200F3FF45FAFF568002D3FF45BAF7561B3
:10410000039B5F897F02B16805E00424D0E7B1F129
:10411000FF3F10D0ED1BBD4294BF00230123002CB4
:1041200018BF00234BB13046FFF707F901460128BD
:10413000EDD80224EBE70124ECE7B161002C7FF419
:1041400039AFC5F30803002B3FF434AF039F384663
:10415000FEF703FD08B902242DE700EB5522F261BA
:10416000012341467878FEF74DFC00283FF422AF4A
:10417000012420E7092420E72DE9F04F85B004460B
:104180000E46174698460023C8F80030019003A950
:10419000FEF72AFE0090002840F0A880637C009380
:1041A000002B40F0A380237C13F0010F00F0BD80B2
:1041B000E5686369ED1ABD425CD33D465AE0A169EA
:1041C0000198FFF7BAF865E04FF0020A84F811A0F1
:1041D000CDF800A08AE04FF0010A84F811A0CDF8D4
:1041E00000A083E04FF0020A84F811A0CDF800A0EF
:1041F0007CE094F91030002B02DB4FEA4A272FE0D5
:10420000E069A0EB09005045F7D24FF4007204F1C9
:10421000280106EB4020FEF753FCEEE7E2694A4531
:104220000DD094F91030002B64DB01234A4604F1D1
:10423000280103984078FEF7E5FB00286ED1C4F80A
:104240001C906369C3F30803C3F50077BD4200D235
:104250002F4604F128013A4619443046FEF730FC57
:10426000ED1BD8F800303B44C8F800303E44636989
:104270001F446761002D39D06369C3F30802002A27
:10428000DFD1039A5789013F17EA532708D1002B42
:1042900095D1A068012897D9B0F1FF3F9BD0A061CC
:1042A000DDF80CB0A1695846FEF757FC814600289E
:1042B00098D0B9444FEA552AB5F5007FAED307EB45
:1042C0000A03BBF80A20934201D9A2EB070A53461E
:1042D0004A4631469BF80100FEF794FB002888D03F
:1042E0004FF0010A84F811A0CDF800A0009805B0A5
:1042F000BDE8F08F012304F128019BF80100FEF7CF
:104300009BFB20B9237C03F07F0323748DE74FF0E0
:10431000010A84F811A0CDF800A0E7E74FF0010AE8
:1043200084F811A0CDF800A0E0E707230093DDE7B3
:1043300070B582B0044601A9FEF756FD70B9237C22
:1043400013F0400F0AD013F0800F09D1FEF796FB4F
:104350000546216A0198FEF78EFD78B102B070BD66
:104360000123E26904F1280101984078FEF764FB1B
:1043700040BB237C03F07F032374E7E7666AF37A8C
:1043800043F02003F372A26831462068FEF704FC74
:10439000E16806F11C00FEF789FB294606F11600CC
:1043A000FEF784FB002106F11200FEF77BFB019B68
:1043B0000122DA700198FFF77DFD237C23F0400392
:1043C0002374CBE70120C9E710B582B00446FFF79C
:1043D000AFFF08B102B010BD01A92046FEF704FDF1
:1043E0000028F7D12060F5E710B584B0019180B3C3
:1043F0000446002203A901A8FEF78EFD034628B15A
:104400000BB100222260184604B010BD039B23604C
:1044100001992046FFF706FD0346A0B994F92B3019
:10442000002B08DBA37913F0100F10D0E16903987B
:10443000FEF79FFBA060039BDB88A3800021204642
:10444000FEF7E3FF0346042BDAD10523D9E7052362
:10445000F9E70923D7E710B582B0044601A9FEF7B2
:10446000C3FC00B9206002B010BDF0B59DB0019052
:10447000022203A901A8FEF74FFD044610B1204611
:104480001DB0F0BD039B1093019910A8FFF7CAFC63
:1044900004460028F3D19DF96B30002B1EDB9DF8FC
:1044A000466016F0010F2FD1039F17993846FEF78B
:1044B00060FB054616F0100F12D0049706900021FD
:1044C00004A8FEF7A2FF044650B9002104A8FFF794
:1044D00071F90446D8B1042802D103E0002506246E
:1044E000002CCCD110A8FFF7C1F904462B1E18BF31
:1044F0000123002818BF00235BB9002CBFD103980B
:10450000FFF7D8FC0446BAE700250724E8E70724AC
:10451000E6E70022294610A8FFF759F80446ECE721
:1045200030B5A5B0019000916846FEF731FC02223B
:104530000BA901A8FEF7F0FC044610B1204625B0F7
:1045400030BD0B9B1893019918A8FFF76BFC04462C
:1045500020B99DF88B3013F0A00F71D1002CEDD154
:1045600020221F9903A8FEF7ABFA302218A90DEB01
:104570000200FEF7A5FA00990CA8FFF753FC0446C9
:1045800058B90E9A1A9B9A4201D0082407E0109A53
:104590001C9B9A4210D0082401E004280CD0002C67
:1045A000CCD118A8FFF762F904460028C6D10B98B1
:1045B000FFF780FC0446C1E70CA8FFF745FA044664
:1045C0000028ECD1139D13220DF1190105F10D0006
:1045D000FEF776FA9DF81730EB7213F0100F02D148
:1045E00043F02003EB720B9B0122DA70EB7A13F09D
:1045F000100FD4D01A9A0E9B9A42D0D00B9C294609
:104600002046FEF7B6FA01462046FEF7A6FA014616
:1046100008B9022492E72046FEF72DFC0B9B03F11C
:10462000540104460028BAD193F855202E2AB6D159
:104630000E9A1846FEF7B0FA0B9B0122DA70AEE72D
:1046400006247BE77F2801D880B27047B0F5803F11
:104650002CBF00230123B1F5697F18BF0023DBB114
:1046600030B480B241F6DD4500241022234601E03B
:104670001D46013A52B12B1B04EB5303094931F893
:104680002310814202D0F3D21C46F2E732B19B00E4
:104690000233044A985A02E000207047002030BCE0
:1046A000704700BF84DF00087F2822D9B1F5697FF9
:1046B0000FD0002070471D46013A8AB12B1B04EB36
:1046C00053030C4931F82310814209D0F3D21C4620
:1046D000F2E730B441F6DD45002410222346ECE732
:1046E00022B19B000233034A985A00E0002030BCFC
:1046F000704770470C6C0008B0F5803F50D2F0B4A2
:1047000087B2B7F5805F01D2264B02E0264B00E06E
:1047100033461A8897422CBF00210121002A08BF86
:104720000121C1B91E1D5B88190ADBB284B29D1834
:10473000AC4204DB0029EBD106EB4303E9E708298F
:1047400009D8DFE801F0050B1115191D21252900F5
:10475000A41A36F814703846F0BC7047BB1A03F040
:104760000103FB1A9FB2F6E7A7F110039FB2F2E72D
:10477000A7F120039FB2EEE7A7F130039FB2EAE76B
:10478000A7F11A039FB2E6E707F108039FB2E2E739
:10479000A7F150039FB2DEE7A7F5E3539FB2DAE734
:1047A000704700BF5C690008506B000808B500F056
:1047B000A7FA08BD08B500F025FA08BD08B500F055
:1047C0002BFA0120FFF7F6FF08BD08B5072000F01F
:1047D00081FA08BD08B5062000F07CFA08BD08B5CE
:1047E0000120FFF7E7FFFF20FFF7E0FF08BD10B54E
:1047F0000024FF20FFF7DAFFFF2806D001346FF016
:104800007F439C42F5D3012000E0002010BD08B595
:104810000020FFF7CFFFFFF7EAFF00B908BDFFF761
:10482000DEFF0120FAE738B505464FF6FF74FF209A
:10483000FFF7BCFFA84203D014B1013CA4B2F6E7D5
:104840000CB1002038BDFF20FCE7F8B506460D4648
:10485000FE20FFF7E8FF074688B96B1E9CB235B112
:10486000FF20FFF7A3FF06F8010B2546F5E7FF2021
:10487000FFF79CFFFF20FFF799FF3846F8BD01279F
:10488000FBE770B505460C46FFF7B1FF10B10126F6
:10489000304670BD06462046FFF788FFFD2CF7D056
:1048A0000024B4F5007F05D2285DFFF77FFF0134B7
:1048B000A4B2F6E7FF20FFF779FFFF20FFF776FFAE
:1048C000FF20FFF773FF00F01F03052BE0D0022647
:1048D000DEE770B505460C461646FFF780FFFFF78A
:1048E00096FF40BB45F04000FFF760FF200EFFF74A
:1048F0005DFFC4F30740FFF759FFC4F30720FFF73C
:1049000055FFE0B2FFF752FF3046FFF74FFF0C2D87
:1049100001D01F2404E0FF20FFF748FFF9E71C4601
:10492000FF20FFF743FF10F0800F05D0631EDBB2BE
:10493000002CF4D100E0FF2070BD000030B583B042
:10494000FFF73CFFFFF741FF0024092C05D8FF20AB
:10495000FFF72CFF0134A4B2F7E7142500E01D4651
:10496000952200210846FFF7B4FF0446012803D032
:104970006B1E9BB2002DF2D1594B00221A70012CF4
:104980000DD0FFF72CFFFFF725FF554B1B78002BB1
:1049900040F0A280002C40F0A080AA249DE0872255
:1049A0004FF4D5710820FFF794FF01284DD1002561
:1049B00008E0FF20FFF7FAFE02AB2B4403F8040CDB
:1049C0000135ADB2032DF4D99DF80630012BD8D1B5
:1049D0009DF80730AA2BD4D14FF6FE7500E01D4696
:1049E000012200213720FFF774FF01224FF08041A0
:1049F0002920FFF76EFF044620B16B1E9BB2002DED
:104A0000EDD11D46002DBCD0012200213A20FFF738
:104A100060FF0028B5D1002508E0FF20FFF7C6FEA3
:104A200002AB2B4403F8040C0135ADB2032DF4D9CD
:104A30009DF8043013F0400F03D0294B06221A7062
:104A40009FE7274B04221A709BE7012200213720A1
:104A5000FFF73FFF012200212920FFF73AFF01283D
:104A600005D91F4B01221A704FF6FE7519E01C4B39
:104A700002221A704FF6FE7500E01D460122002149
:104A80003720FFF726FF012200212920FFF721FF11
:104A9000044690B16B1E9BB2002DEED11D460CE07A
:104AA0001D46012200211046FFF713FF044620B1E6
:104AB0006B1E9BB2002DF3D11D461DB9084B002281
:104AC0001A705EE701224FF400711020FFF701FF1A
:104AD00000283FF456AFF1E70024204603B030BD74
:104AE0001007002470B506461546174B1B78062B99
:104AF00000D04902012D18D001221220FFF7E9FE53
:104B00004FF400713046FFF7A0FE044606F500762C
:104B1000013D01D00028F3D0012200210C20FFF735
:104B2000D8FEFFF75CFE204670BD01221120FFF782
:104B3000D0FE04460028F4D14FF400713046FFF750
:104B400084FE0446EDE700BF1007002470B505465B
:104B50000E4614461D4B1B78062B00D04E02012C2E
:104B60001BD0012B27D1012231461920FFF7B1FEBE
:104B7000064670B9FC212846FFF783FE05F500754F
:104B8000013C01D00028F5D0FD210020FFF779FE7F
:104B90000646FFF724FE304670BD0122314618203C
:104BA000FFF797FE06460028F3D1FE212846FFF7BF
:104BB00068FE0646EDE7012200213720FFF789FE57
:104BC000012221461720FFF784FECCE710070024BE
:104BD00000B583B0094AD2F8E03043F00103C2F8CF
:104BE000E030012201920223009300234FF40041A0
:104BF0000348FDF7AAFE03B05DF804FB0044025829
:104C00000000025808B502464FF400410148FDF784
:104C1000DEFE08BD0000025830B583B0FFF7D8FFB4
:104C2000284CD4F8E03043F00403C4F8E030D4F862
:104C3000E83043F40043C4F8E830234D01230193E6
:104C40000222009200234FF4E0512846FDF77DFE3A
:104C500006220A212846FDF761FE06220B2128467E
:104C6000FDF75CFE06220C212846FDF757FE236D5A
:104C700023F4E0432365236D2365D4F8903043F497
:104C80000043C4F89030D4F8903023F40043C4F8C3
:104C900090300E4B1A6842F480521A604FF0E04296
:104CA0009A609A6842F007029A60094ADA601A6DBF
:104CB00022F001021A651A6842F001021A6003B07C
:104CC00030BD00BF0044025800080258003C0040BC
:104CD0000000408700F00702084B196821F001012D
:104CE0001960996821F0E0419960986840EA027083
:104CF00098601A6842F001021A607047003C004058
:104D0000104B1A6842F001021A601A6842F40072ED
:104D10001A600C4B5B6913F0020FFAD00A4B187043
:104D2000084B5B6913F0010FFAD0084B1878303B41
:104D30009A6942F018029A611A6822F001021A6018
:104D4000704700BF003C0040203C0040303C004029
:104D5000044B05495960054A5A60C3F80411C3F869
:104D6000042170470020005223016745AB89EFCD35
:104D7000054BDA6842F00102DA60D3F80C2142F008
:104D80000102C3F80C21704700200052F0B91A4B01
:104D90001B6913F4003F1DD113F4802F1CD113F4B1
:104DA000002F1BD113F4001F1AD113F4800F19D157
:104DB00013F4000F18D113F0807F17D113F0007F88
:104DC00016D113F0806F15D1002070470A4BD3F82D
:104DD0001031DEE701207047022070470320704742
:104DE0000420704705207047062070470720704751
:104DF00008207047092070470020005238B505464A
:104E00000C460AE00F4BD3F8103113F0070F09D00E
:104E10000A2000F09DF9013C12D0002DF2D1094B7F
:104E20001B69F2E72846FFF7B1FF50B11DB9054BEA
:104E3000054A5A6105E0034B034AC3F8142100E018
:104E4000FF2038BD002000520000EE0738B50446B0
:104E5000C5082E492846FFF7D1FF28BB072C24D8C8
:104E60002B4BDA6822F4E062DA60DA6822F0300272
:104E7000DA60DA6842EA0422DA60DA6842F0200294
:104E8000DA60DA6842F00402DA60DA6842F080023E
:104E9000DA601E492846FFF7B1FF072C2DD81C4ABF
:104EA000D36823F00403D36038BD194BD3F80C2129
:104EB00022F4E062C3F80C21D3F80C2122F0300276
:104EC000C3F80C21D3F80C21A4F1080142EA012215
:104ED000C3F80C21D3F80C2142F02002C3F80C21B6
:104EE000D3F80C2142F00402C3F80C21D3F80C21B2
:104EF00042F08002C3F80C21CBE7054AD2F80C310E
:104F000023F00403C2F80C31CEE700BF400D0300CC
:104F10000020005270B504460D46B0F1016F16D264
:104F20000026FF213046FFF769FF002839D186B9F6
:104F3000204BDA6822F03002DA60DA6842F02002B0
:104F4000DA60DA6842F00202DA6008231BE0012628
:104F5000E7E7184BD3F80C2122F03002C3F80C21FC
:104F6000D3F80C2142F02002C3F80C21D3F80C2115
:104F700042F00202C3F80C21E7E755F8042B44F88D
:104F8000042B013BDBB2002BF7D1BFF34F8FFF2186
:104F90003046FFF733FF2EB9064AD36823F00203E9
:104FA000D36070BD034AD2F80C3123F00203C2F87B
:104FB0000C31F6E700200052006870472C4B9842F5
:104FC00038D903F50033984236D903F500339842B7
:104FD00034D903F50033984232D903F500339842AF
:104FE00030D903F5003398422ED903F500339842A7
:104FF0002CD9B0F1016F2BD303F58023984229D926
:1050000003F50033984227D903F50033984225D998
:1050100003F50033984223D903F50033984221D990
:1050200003F5003398421FD903F5003398421DD988
:105030000F20704700207047012070470220704702
:1050400003207047042070470520704706207047F2
:105050000720704708207047092070470A207047D2
:105060000B2070470C2070470D2070470E207047B2
:10507000FFFF0108B0F1006F58D32DE9F04104465D
:105080000D46174610F01F0F01D0BDE8F081FFF765
:105090005FFE04EB8707264B9C423DD9BC4242D2BF
:1050A00029462046FFF736FF00283CD12034203522
:1050B000F4E71846CCF3C90243F6E07303EA401361
:1050C00043EA82731B49C1F874321346013A002B3C
:1050D000F2D1431E0028ECD1BFF34F8FBFF36F8F87
:1050E00000E00436BE421BD23046FFF765FFB0F148
:1050F000FF3FF6D03046FFF761FFFFF7A7FE80467F
:1051000070B90C4B0022C3F88420BFF34F8FD3F843
:1051100080C0CCF34E30CDE726464FF00008E1E7E3
:10512000B8F1000FBAD0FFF723FEAEE7704700BF1B
:10513000FFFFEF1F00ED00E0034A136843F0040394
:105140001360024B1880704710E000E01207002443
:105150000C4B1B8800FB03F00B4B586000229A603D
:105160001A6842F001021A60074B1B6803F0011332
:10517000012BF9D0044B1A6822F001021A600022B8
:105180009A6070471207002410E000E0012806D062
:1051900020B9064A936923F0010393617047034ADB
:1051A000936943F001039361704700BF0010005002
:1051B000012907D061B9B8B90E4A136823F0010379
:1051C000136005E050B90B4A136843F00103136004
:1051D000094A536A43F0010353627047074A136850
:1051E00043F001031360F3E7044A136823F001035B
:1051F0001360EDE7841000500010005004110050BF
:10520000014B1875704700BF280F002410B40D4BD8
:105210001B7853B90C4C6368591A89B2013989B2A9
:105220002368181A80B2013880B2074B1B6803FB51
:105230000101064B1B6892B223F811205DF8044B64
:10524000704700BF14070024280F00241C0000240E
:10525000F0B4284C2478002C42D004460E46501E50
:10526000591E254B1B68221A13FA82F292B2013A98
:1052700092B206FB0343214D2D6805EB4305204FF9
:10528000D7F8D43043F01003C7F8D4301D4B1F6853
:1052900027F001071F604FF440371F6002275F634C
:1052A0001A64DD638A1B0132001B013042EA0042AE
:1052B0005A64049A9A631A6842F001021A60002341
:1052C000104A526812F0020F03D10133B3F5001FE8
:1052D000F6D30C4A936843F002039360F0BC704726
:1052E000054E3568AC1A7268D61A281A0138511A58
:1052F0000139B6E714070024280F00241C000024FD
:10530000004402580010005200B583B000904FF4E2
:1053100016734FF4806200210846FFF799FF03B02F
:105320005DF804FB30B42B4C236823F080532360DA
:105330000023284C246814F0005F06D041F6FE7468
:10534000A34202D801339BB2F3E741F6FF74A342B4
:105350003CD0204CA56A25F07C75A562A56A45EA7B
:105360000151A162256C1C4929402164216C01383E
:1053700008432064216C21F0FE412164216C013A34
:1053800041EA02622264E26A22F47062E262E26A44
:10539000E262E26AE262E26A42F08072E2622268FB
:1053A00042F08052226001E001339BB2094A126848
:1053B00012F0005F03D141F6FE729342F4D941F638
:1053C000FF72934204D0002030BC70470120FBE7FD
:1053D0000220F9E70044025800FEFFFFF8B5BDF8CF
:1053E00018509DF81C40002839D101EB030C374FB1
:1053F000FE68C6F30B46B444FE68C6F30B46314460
:10540000013141EA0C41DFF8C8C0CCF8041056194C
:10541000F968C1F30A010E44F968C1F30A010A44AC
:10542000013242EA0642CCF808204CB1012C14D0DB
:10543000053CE4B2012C01D9022202E0012200E085
:10544000042202FB03F3DA1D42EA0343204AD3623B
:1054500015630121FFF7ACFEF8BD0322F1E7CF1879
:105460001A4ED6F80CC0CCF30B4C6744D6F80CC0DF
:10547000CCF30B4C6144013141EA0741154F79608F
:105480005119D6F80CC0CCF30A0C6144F668C6F387
:105490000A063244013242EA0142BA604CB1012CA0
:1054A00011D0053CE4B2012C01D9022202E0012214
:1054B00000E0042202FB03F3DA1D42EA0343054A3B
:1054C000D3621563C5E70322F4E700BF0010005064
:1054D0008410005004110050084881620261436149
:1054E0009DF80020039B43EA026383619DF804203A
:1054F0009DF8083043EA0223C361704784100050CE
:1055000047F21600704700002DE9F04784B0FFF71E
:10551000F7FF10B904B0BDE8F08700F007FA914B2F
:10552000D3F8E42042F00802C3F8E420D3F8E020E6
:1055300042F00202C3F8E020D3F8E02042F4F07217
:10554000C3F8E020884F01250195009500232A46E5
:1055500020213846FDF7F9F9DFF828A201954FF030
:105560000308CDF80080002302224FF480615046EA
:10557000FDF7EBF9DFF810920195CDF800800023DC
:1055800002224FF40C614846FDF7DFF9774E019592
:10559000CDF80080002302224FF47E413046FDF713
:1055A000D4F9734C0195CDF800800023022240F21B
:1055B000F7612046FDF7C9F90E220A215046FDF792
:1055C000ADF90E2206214846FDF7A8F90E22072163
:1055D0004846FDF7A3F90E220B214846FDF79EF938
:1055E0000E2209213046FDF799F90E220A21304694
:1055F000FDF794F90E220B213046FDF78FF90E22AC
:105600000C213046FDF78AF90E220D213046FDF7B8
:1056100085F90E2211463046FDF780F90E220F2142
:105620003046FDF77BF90E2200212046FDF776F982
:105630000E2229462046FDF771F90E22022120464E
:10564000FDF76CF90E2204212046FDF767F90E22C2
:1056500005212046FDF762F90E2206212046FDF7BE
:105660005DF90E2207212046FDF758F90E22092187
:105670002046FDF753F90E220A212046FDF74EF988
:105680003C4C4FF4806323604FF416736360142323
:105690002381A4F80A808C22A281E381A0232382A3
:1056A0000C236382062219214FF49670FFF73AFE0D
:1056B0003148002686616389013B2289013A43EA29
:1056C000024383606389E189194401392289B4F86E
:1056D0000CC094440CF1FF3C41EA0C41C160E189EB
:1056E0000B4461680B44591EB4F80CC09444226802
:1056F000624402F1FF3C41EA0C410161618A0B44C2
:10570000013B218A0A44013A43EA02424261C662ED
:105710002846FFF73BFD4FF00208C4F81C800396B3
:1057200007230293062301930096FF234246134961
:1057300009683046FFF7D0FECDF80480A3880093B7
:105740002388324631463046FFF748FE0C4B1D7029
:105750003046FFF755FD2A4620213846FDF737F938
:10576000D8E600BF0044025800040258001C02584A
:1057700000200258280F0024001000501C000024B4
:105780001407002400140258001802582DE9F04FA5
:1057900083B0824688461F469DF830B013F0070359
:1057A00018BF012303EBD703790811FB03F3DBB226
:1057B0000093203AD3B2019344464FF0000947E0EA
:1057C000019B03EB43032D4A02EB830313F80950BB
:1057D000002622E02A4B019A03EB021313F809502A
:1057E000F6E7019B03EBC303264A02EB830313F89E
:1057F0000950EDE7244B1A6821465046FFF706FD95
:105800006D00EDB20134A4B2B4F5167F32D2A4EB30
:105810000803BB4210D00136F6B2072E14D815F09B
:10582000800FE7D1BBF1000FEAD1184B1A6821466F
:105830005046FFF7EBFCE3E70AF1010A1FFA8AFA88
:10584000BAF5806F16D2444609F101095FFA89F969
:10585000009B99450ED20C2FB2D0102FBAD0182F22
:10586000BFD0202F06D10A4B019A03EBC21313F8C5
:105870000950ADE703B0BDE8F08F00BFFC5201084E
:1058800070570108605D010818000024140000240E
:10589000BC6A01082DE9F04782B082460D469DF8AA
:1058A00028700B9E02441FFA82F90B441FFA83F8FA
:1058B00004460CE0454517D2002300933B46294699
:1058C0002046FFF763FF04EB5704A4B20136327899
:1058D000A2F12003DBB25E2B06D84C45EAD35FFA77
:1058E0008AF43D44ADB2E5E702B0BDE8F0870000C0
:1058F00010B4C0F104040120A040014341EA421168
:1059000041EA4321084B19610023074A926912F0CA
:10591000200F05D00133B3F5001FF6D3012000E0BE
:1059200000205DF8044B70474041005208B5084B19
:105930001A6822F4C0721A601A6842F480721A60FF
:1059400040F22323002204211046FFF7D1FF08BDB7
:10595000404100522DE9F04782B09A4BD3F8D42051
:1059600042F48052C3F8D420D3F8E02042F07C0205
:10597000C3F8E020DFF864A2012601960327009710
:10598000002302220D215046FCF7DFFFDFF8509282
:1059900001960097002302224CF203714846FCF75F
:1059A000D4FF894D01960097002302224FF68371A0
:1059B0002846FCF7CAFF854C019600970023022277
:1059C0004FF63F012046FCF7C0FFDFF81882019632
:1059D00000970023022248F237114046FCF7B5FF3A
:1059E0000C2200215046FCF799FF0C220221504660
:1059F000FCF794FF0C2239465046FCF78FFF0C222F
:105A000000214846FCF78AFF0C2231464846FCF745
:105A100085FF0C2208214846FCF780FF0C22092153
:105A20004846FCF77BFF0C220A214846FCF776FF2C
:105A30000C220E214846FCF771FF0C220F2148462C
:105A4000FCF76CFF0C2200212846FCF767FF0C22B4
:105A500031462846FCF762FF0C2207212846FCF756
:105A60005DFF0C2208212846FCF758FF0C22092173
:105A70002846FCF753FF0C220A212846FCF74EFF6C
:105A80000C220B212846FCF749FF0C221146284620
:105A9000FCF744FF0C220D212846FCF73FFF0C22A7
:105AA0000E212846FCF73AFF0C220F212846FCF76E
:105AB00035FF0C2200212046FCF730FF0C22314636
:105AC0002046FCF72BFF0C2202212046FCF726FF84
:105AD0000C2239462046FCF721FF0C2204212046E7
